{
  "_format": "hh-sol-artifact-1",
  "contractName": "FlashSwapUniswapV2",
  "sourceName": "contracts/FlashSwapUniswapV2.sol",
  "abi": [
    {
      "inputs": [
        {
          "internalType": "address",
          "name": "_owner",
          "type": "address"
        }
      ],
      "stateMutability": "nonpayable",
      "type": "constructor"
    },
    {
      "inputs": [
        {
          "internalType": "address",
          "name": "owner",
          "type": "address"
        }
      ],
      "name": "OwnableInvalidOwner",
      "type": "error"
    },
    {
      "inputs": [
        {
          "internalType": "address",
          "name": "account",
          "type": "address"
        }
      ],
      "name": "OwnableUnauthorizedAccount",
      "type": "error"
    },
    {
      "anonymous": false,
      "inputs": [
        {
          "indexed": true,
          "internalType": "address",
          "name": "requestor",
          "type": "address"
        },
        {
          "indexed": false,
          "internalType": "address[]",
          "name": "tokens",
          "type": "address[]"
        },
        {
          "indexed": false,
          "internalType": "uint256[]",
          "name": "amounts",
          "type": "uint256[]"
        },
        {
          "indexed": false,
          "internalType": "bytes",
          "name": "userData",
          "type": "bytes"
        }
      ],
      "name": "FlashLoanRequested",
      "type": "event"
    },
    {
      "anonymous": false,
      "inputs": [
        {
          "indexed": true,
          "internalType": "address",
          "name": "profitToken",
          "type": "address"
        },
        {
          "indexed": false,
          "internalType": "uint256",
          "name": "profitAmount",
          "type": "uint256"
        }
      ],
      "name": "FlashSwapCompleted",
      "type": "event"
    },
    {
      "anonymous": false,
      "inputs": [
        {
          "indexed": true,
          "internalType": "address",
          "name": "previousOwner",
          "type": "address"
        },
        {
          "indexed": true,
          "internalType": "address",
          "name": "newOwner",
          "type": "address"
        }
      ],
      "name": "OwnershipTransferred",
      "type": "event"
    },
    {
      "anonymous": false,
      "inputs": [
        {
          "indexed": true,
          "internalType": "address",
          "name": "sender",
          "type": "address"
        },
        {
          "indexed": false,
          "internalType": "uint256",
          "name": "amount",
          "type": "uint256"
        }
      ],
      "name": "ReceivedETH",
      "type": "event"
    },
    {
      "anonymous": false,
      "inputs": [
        {
          "indexed": true,
          "internalType": "address",
          "name": "recipient",
          "type": "address"
        },
        {
          "indexed": false,
          "internalType": "uint256",
          "name": "amount",
          "type": "uint256"
        }
      ],
      "name": "WithdrawETH",
      "type": "event"
    },
    {
      "anonymous": false,
      "inputs": [
        {
          "indexed": true,
          "internalType": "address",
          "name": "recipient",
          "type": "address"
        },
        {
          "indexed": false,
          "internalType": "uint256",
          "name": "amount",
          "type": "uint256"
        }
      ],
      "name": "WithdrawToken",
      "type": "event"
    },
    {
      "inputs": [],
      "name": "owner",
      "outputs": [
        {
          "internalType": "address",
          "name": "",
          "type": "address"
        }
      ],
      "stateMutability": "view",
      "type": "function"
    },
    {
      "inputs": [
        {
          "internalType": "contract IERC20[]",
          "name": "tokens",
          "type": "address[]"
        },
        {
          "internalType": "uint256[]",
          "name": "amounts",
          "type": "uint256[]"
        },
        {
          "internalType": "uint256[]",
          "name": "feeAmounts",
          "type": "uint256[]"
        },
        {
          "internalType": "bytes",
          "name": "userData",
          "type": "bytes"
        }
      ],
      "name": "receiveFlashLoan",
      "outputs": [],
      "stateMutability": "nonpayable",
      "type": "function"
    },
    {
      "inputs": [],
      "name": "renounceOwnership",
      "outputs": [],
      "stateMutability": "nonpayable",
      "type": "function"
    },
    {
      "inputs": [
        {
          "internalType": "uint256",
          "name": "_initialAmount",
          "type": "uint256"
        },
        {
          "internalType": "address[]",
          "name": "_tokens",
          "type": "address[]"
        },
        {
          "internalType": "address[]",
          "name": "_routers",
          "type": "address[]"
        }
      ],
      "name": "requestFlashTrade",
      "outputs": [],
      "stateMutability": "nonpayable",
      "type": "function"
    },
    {
      "inputs": [
        {
          "internalType": "address",
          "name": "newOwner",
          "type": "address"
        }
      ],
      "name": "transferOwnership",
      "outputs": [],
      "stateMutability": "nonpayable",
      "type": "function"
    },
    {
      "inputs": [
        {
          "internalType": "uint256",
          "name": "_amount",
          "type": "uint256"
        }
      ],
      "name": "withdraw",
      "outputs": [],
      "stateMutability": "nonpayable",
      "type": "function"
    },
    {
      "inputs": [
        {
          "internalType": "address",
          "name": "token",
          "type": "address"
        },
        {
          "internalType": "uint256",
          "name": "_amount",
          "type": "uint256"
        }
      ],
      "name": "withdrawToken",
      "outputs": [],
      "stateMutability": "nonpayable",
      "type": "function"
    },
    {
      "stateMutability": "payable",
      "type": "receive"
    }
  ],
  "bytecode": "0x60806040523480156200001157600080fd5b5060405162002ce838038062002ce88339818101604052810190620000379190620001f4565b80600073ffffffffffffffffffffffffffffffffffffffff168173ffffffffffffffffffffffffffffffffffffffff1603620000ad5760006040517f1e4fbdf7000000000000000000000000000000000000000000000000000000008152600401620000a4919062000237565b60405180910390fd5b620000be81620000c660201b60201c565b505062000254565b60008060009054906101000a900473ffffffffffffffffffffffffffffffffffffffff169050816000806101000a81548173ffffffffffffffffffffffffffffffffffffffff021916908373ffffffffffffffffffffffffffffffffffffffff1602179055508173ffffffffffffffffffffffffffffffffffffffff168173ffffffffffffffffffffffffffffffffffffffff167f8be0079c531659141344cd1fd0a4f28419497f9722a3daafe3b4186f6b6457e060405160405180910390a35050565b600080fd5b600073ffffffffffffffffffffffffffffffffffffffff82169050919050565b6000620001bc826200018f565b9050919050565b620001ce81620001af565b8114620001da57600080fd5b50565b600081519050620001ee81620001c3565b92915050565b6000602082840312156200020d576200020c6200018a565b5b60006200021d84828501620001dd565b91505092915050565b6200023181620001af565b82525050565b60006020820190506200024e600083018462000226565b92915050565b612a8480620002646000396000f3fe6080604052600436106100745760003560e01c80638da5cb5b1161004e5780638da5cb5b146101375780639e281a9814610162578063f04f27071461018b578063f2fde38b146101b4576100c9565b80632aa13825146100ce5780632e1a7d4d146100f7578063715018a614610120576100c9565b366100c9573373ffffffffffffffffffffffffffffffffffffffff167f4103257eaac983ca79a70d28f90dfc4fa16b619bb0c17ee7cab0d4034c279624346040516100bf9190611681565b60405180910390a2005b600080fd5b3480156100da57600080fd5b506100f560048036038101906100f09190611893565b6101dd565b005b34801561010357600080fd5b5061011e6004803603810190610119919061191e565b610524565b005b34801561012c57600080fd5b506101356105c4565b005b34801561014357600080fd5b5061014c6105d8565b604051610159919061195a565b60405180910390f35b34801561016e57600080fd5b5061018960048036038101906101849190611975565b610601565b005b34801561019757600080fd5b506101b260048036038101906101ad9190611c2e565b6106e1565b005b3480156101c057600080fd5b506101db60048036038101906101d69190611d05565b610aab565b005b6101e5610b31565b60008311610228576040517f08c379a000000000000000000000000000000000000000000000000000000000815260040161021f90611d8f565b60405180910390fd5b60028251101561026d576040517f08c379a000000000000000000000000000000000000000000000000000000000815260040161026490611dfb565b60405180910390fd5b6002815110156102b2576040517f08c379a00000000000000000000000000000000000000000000000000000000081526004016102a990611e67565b60405180910390fd5b81518151146102f6576040517f08c379a00000000000000000000000000000000000000000000000000000000081526004016102ed90611ef9565b60405180910390fd5b6000600167ffffffffffffffff811115610313576103126116f2565b5b6040519080825280602002602001820160405280156103415781602001602082028036833780820191505090505b5090508260008151811061035857610357611f19565b5b60200260200101518160008151811061037457610373611f19565b5b602002602001019073ffffffffffffffffffffffffffffffffffffffff16908173ffffffffffffffffffffffffffffffffffffffff16815250506000600167ffffffffffffffff8111156103cb576103ca6116f2565b5b6040519080825280602002602001820160405280156103f95781602001602082028036833780820191505090505b509050848160008151811061041157610410611f19565b5b602002602001018181525050600085858560405160200161043493929190612006565b604051602081830303815290604052905073ba12222222228d8ba445958a75a0704d566bf2c873ffffffffffffffffffffffffffffffffffffffff16635c38449e308585856040518563ffffffff1660e01b815260040161049894939291906122a6565b600060405180830381600087803b1580156104b257600080fd5b505af11580156104c6573d6000803e3d6000fd5b505050503073ffffffffffffffffffffffffffffffffffffffff167f09ed743e0be98d4db522ff42e725327c51ae61fab4ef476461f469c50928865d86848460405161051493929190612300565b60405180910390a2505050505050565b61052c610b31565b3373ffffffffffffffffffffffffffffffffffffffff166108fc829081150290604051600060405180830381858888f19350505050158015610572573d6000803e3d6000fd5b503373ffffffffffffffffffffffffffffffffffffffff167f566e45b1c8057e725bf62796a7f1d37ae294393cab069725a09daddd1af98b79826040516105b99190611681565b60405180910390a250565b6105cc610b31565b6105d66000610bb8565b565b60008060009054906101000a900473ffffffffffffffffffffffffffffffffffffffff16905090565b610609610b31565b8173ffffffffffffffffffffffffffffffffffffffff1663a9059cbb61062d6105d8565b836040518363ffffffff1660e01b815260040161064b92919061234c565b6020604051808303816000875af115801561066a573d6000803e3d6000fd5b505050506040513d601f19601f8201168201806040525081019061068e91906123ad565b503373ffffffffffffffffffffffffffffffffffffffff167f992ee874049a42cae0757a765cd7f641b6028cc35c3478bde8330bf417c3a7a9826040516106d59190611681565b60405180910390a25050565b73ba12222222228d8ba445958a75a0704d566bf2c873ffffffffffffffffffffffffffffffffffffffff163373ffffffffffffffffffffffffffffffffffffffff1614610763576040517f08c379a000000000000000000000000000000000000000000000000000000000815260040161075a90612426565b60405180910390fd5b60008060008380602001905181019061077c9190612507565b925092509250600061078f848484610c7c565b90506107d06040518060400160405280600b81526020017f66696e616c416d6f756e7400000000000000000000000000000000000000000081525082611239565b6000866000815181106107e6576107e5611f19565b5b60200260200101518860008151811061080257610801611f19565b5b602002602001015161081491906125c1565b90506108556040518060400160405280600d81526020017f616d6f756e74546f52657061790000000000000000000000000000000000000081525082611239565b80821015610898576040517f08c379a000000000000000000000000000000000000000000000000000000000815260040161088f90612641565b60405180910390fd5b600081836108a69190612661565b90506108e76040518060400160405280600c81526020017f70726f666974416d6f756e74000000000000000000000000000000000000000081525082611239565b896000815181106108fb576108fa611f19565b5b602002602001015173ffffffffffffffffffffffffffffffffffffffff1663a9059cbb6109266105d8565b836040518363ffffffff1660e01b815260040161094492919061234c565b6020604051808303816000875af1158015610963573d6000803e3d6000fd5b505050506040513d601f19601f8201168201806040525081019061098791906123ad565b508960008151811061099c5761099b611f19565b5b602002602001015173ffffffffffffffffffffffffffffffffffffffff1663a9059cbb73ba12222222228d8ba445958a75a0704d566bf2c8846040518363ffffffff1660e01b81526004016109f292919061234c565b6020604051808303816000875af1158015610a11573d6000803e3d6000fd5b505050506040513d601f19601f82011682018060405250810190610a3591906123ad565b5089600081518110610a4a57610a49611f19565b5b602002602001015173ffffffffffffffffffffffffffffffffffffffff167f4153bacfbc81c177d018bc06847c7e7e5e8f0eb46142eaf88abbe9765dc25b6382604051610a979190611681565b60405180910390a250505050505050505050565b610ab3610b31565b600073ffffffffffffffffffffffffffffffffffffffff168173ffffffffffffffffffffffffffffffffffffffff1603610b255760006040517f1e4fbdf7000000000000000000000000000000000000000000000000000000008152600401610b1c919061195a565b60405180910390fd5b610b2e81610bb8565b50565b610b396112d5565b73ffffffffffffffffffffffffffffffffffffffff16610b576105d8565b73ffffffffffffffffffffffffffffffffffffffff1614610bb657610b7a6112d5565b6040517f118cdaa7000000000000000000000000000000000000000000000000000000008152600401610bad919061195a565b60405180910390fd5b565b60008060009054906101000a900473ffffffffffffffffffffffffffffffffffffffff169050816000806101000a81548173ffffffffffffffffffffffffffffffffffffffff021916908373ffffffffffffffffffffffffffffffffffffffff1602179055508173ffffffffffffffffffffffffffffffffffffffff168173ffffffffffffffffffffffffffffffffffffffff167f8be0079c531659141344cd1fd0a4f28419497f9722a3daafe3b4186f6b6457e060405160405180910390a35050565b60008084905060005b845181101561122d5760018551610c9c9190612661565b81146110d05783600182610cb091906125c1565b81518110610cc157610cc0611f19565b5b602002602001015173ffffffffffffffffffffffffffffffffffffffff16848281518110610cf257610cf1611f19565b5b602002602001015173ffffffffffffffffffffffffffffffffffffffff1603610f76576000600367ffffffffffffffff811115610d3257610d316116f2565b5b604051908082528060200260200182016040528015610d605781602001602082028036833780820191505090505b509050858281518110610d7657610d75611f19565b5b602002602001015181600081518110610d9257610d91611f19565b5b602002602001019073ffffffffffffffffffffffffffffffffffffffff16908173ffffffffffffffffffffffffffffffffffffffff168152505085600183610dda91906125c1565b81518110610deb57610dea611f19565b5b602002602001015181600181518110610e0757610e06611f19565b5b602002602001019073ffffffffffffffffffffffffffffffffffffffff16908173ffffffffffffffffffffffffffffffffffffffff168152505060028651610e4f9190612661565b8203610ec45785600081518110610e6957610e68611f19565b5b602002602001015181600281518110610e8557610e84611f19565b5b602002602001019073ffffffffffffffffffffffffffffffffffffffff16908173ffffffffffffffffffffffffffffffffffffffff1681525050610f3a565b85600283610ed291906125c1565b81518110610ee357610ee2611f19565b5b602002602001015181600281518110610eff57610efe611f19565b5b602002602001019073ffffffffffffffffffffffffffffffffffffffff16908173ffffffffffffffffffffffffffffffffffffffff16815250505b610f5f858381518110610f5057610f4f611f19565b5b602002602001015182856112dd565b9250600182610f6e91906125c1565b9150506110cb565b6000600267ffffffffffffffff811115610f9357610f926116f2565b5b604051908082528060200260200182016040528015610fc15781602001602082028036833780820191505090505b509050858281518110610fd757610fd6611f19565b5b602002602001015181600081518110610ff357610ff2611f19565b5b602002602001019073ffffffffffffffffffffffffffffffffffffffff16908173ffffffffffffffffffffffffffffffffffffffff16815250508560018361103b91906125c1565b8151811061104c5761104b611f19565b5b60200260200101518160018151811061106857611067611f19565b5b602002602001019073ffffffffffffffffffffffffffffffffffffffff16908173ffffffffffffffffffffffffffffffffffffffff16815250506110c78583815181106110b8576110b7611f19565b5b602002602001015182856112dd565b9250505b61121a565b6000600267ffffffffffffffff8111156110ed576110ec6116f2565b5b60405190808252806020026020018201604052801561111b5781602001602082028036833780820191505090505b50905085828151811061113157611130611f19565b5b60200260200101518160008151811061114d5761114c611f19565b5b602002602001019073ffffffffffffffffffffffffffffffffffffffff16908173ffffffffffffffffffffffffffffffffffffffff16815250508560008151811061119b5761119a611f19565b5b6020026020010151816001815181106111b7576111b6611f19565b5b602002602001019073ffffffffffffffffffffffffffffffffffffffff16908173ffffffffffffffffffffffffffffffffffffffff168152505061121685838151811061120757611206611f19565b5b602002602001015182856112dd565b9250505b808061122590612695565b915050610c85565b50809150509392505050565b6112d1828260405160240161124f929190612721565b6040516020818303038152906040527fb60e72cc000000000000000000000000000000000000000000000000000000007bffffffffffffffffffffffffffffffffffffffffffffffffffffffff19166020820180517bffffffffffffffffffffffffffffffffffffffffffffffffffffffff8381831617835250505050611510565b5050565b600033905090565b600080849050600073ffffffffffffffffffffffffffffffffffffffff168173ffffffffffffffffffffffffffffffffffffffff1603611352576040517f08c379a00000000000000000000000000000000000000000000000000000000081526004016113499061279d565b60405180910390fd5b6113788460008151811061136957611368611f19565b5b6020026020010151868561152a565b60006103844261138891906125c1565b905060008273ffffffffffffffffffffffffffffffffffffffff1663d06ca61f86886040518363ffffffff1660e01b81526004016113c79291906127bd565b600060405180830381865afa1580156113e4573d6000803e3d6000fd5b505050506040513d6000823e3d601f19601f8201168201806040525081019061140d9190612884565b905060006064606283600185516114249190612661565b8151811061143557611434611f19565b5b602002602001015161144791906128cd565b611451919061293e565b90508373ffffffffffffffffffffffffffffffffffffffff166338ed173987838a30886040518663ffffffff1660e01b815260040161149495949392919061296f565b6000604051808303816000875af11580156114b3573d6000803e3d6000fd5b505050506040513d6000823e3d601f19601f820116820180604052508101906114dc9190612884565b600188516114ea9190612661565b815181106114fb576114fa611f19565b5b60200260200101519450505050509392505050565b6115278161151f611632611653565b63ffffffff16565b50565b808373ffffffffffffffffffffffffffffffffffffffff1663dd62ed3e30856040518363ffffffff1660e01b81526004016115669291906129c9565b602060405180830381865afa158015611583573d6000803e3d6000fd5b505050506040513d601f19601f820116820180604052508101906115a791906129f2565b101561162d578273ffffffffffffffffffffffffffffffffffffffff1663095ea7b383836040518363ffffffff1660e01b81526004016115e892919061234c565b6020604051808303816000875af1158015611607573d6000803e3d6000fd5b505050506040513d601f19601f8201168201806040525081019061162b91906123ad565b505b505050565b60006a636f6e736f6c652e6c6f679050600080835160208501845afa505050565b61165e819050919050565b611666612a1f565b565b6000819050919050565b61167b81611668565b82525050565b60006020820190506116966000830184611672565b92915050565b6000604051905090565b600080fd5b600080fd5b6116b981611668565b81146116c457600080fd5b50565b6000813590506116d6816116b0565b92915050565b600080fd5b6000601f19601f8301169050919050565b7f4e487b7100000000000000000000000000000000000000000000000000000000600052604160045260246000fd5b61172a826116e1565b810181811067ffffffffffffffff82111715611749576117486116f2565b5b80604052505050565b600061175c61169c565b90506117688282611721565b919050565b600067ffffffffffffffff821115611788576117876116f2565b5b602082029050602081019050919050565b600080fd5b600073ffffffffffffffffffffffffffffffffffffffff82169050919050565b60006117c98261179e565b9050919050565b6117d9816117be565b81146117e457600080fd5b50565b6000813590506117f6816117d0565b92915050565b600061180f61180a8461176d565b611752565b9050808382526020820190506020840283018581111561183257611831611799565b5b835b8181101561185b578061184788826117e7565b845260208401935050602081019050611834565b5050509392505050565b600082601f83011261187a576118796116dc565b5b813561188a8482602086016117fc565b91505092915050565b6000806000606084860312156118ac576118ab6116a6565b5b60006118ba868287016116c7565b935050602084013567ffffffffffffffff8111156118db576118da6116ab565b5b6118e786828701611865565b925050604084013567ffffffffffffffff811115611908576119076116ab565b5b61191486828701611865565b9150509250925092565b600060208284031215611934576119336116a6565b5b6000611942848285016116c7565b91505092915050565b611954816117be565b82525050565b600060208201905061196f600083018461194b565b92915050565b6000806040838503121561198c5761198b6116a6565b5b600061199a858286016117e7565b92505060206119ab858286016116c7565b9150509250929050565b600067ffffffffffffffff8211156119d0576119cf6116f2565b5b602082029050602081019050919050565b60006119ec826117be565b9050919050565b6119fc816119e1565b8114611a0757600080fd5b50565b600081359050611a19816119f3565b92915050565b6000611a32611a2d846119b5565b611752565b90508083825260208201905060208402830185811115611a5557611a54611799565b5b835b81811015611a7e5780611a6a8882611a0a565b845260208401935050602081019050611a57565b5050509392505050565b600082601f830112611a9d57611a9c6116dc565b5b8135611aad848260208601611a1f565b91505092915050565b600067ffffffffffffffff821115611ad157611ad06116f2565b5b602082029050602081019050919050565b6000611af5611af084611ab6565b611752565b90508083825260208201905060208402830185811115611b1857611b17611799565b5b835b81811015611b415780611b2d88826116c7565b845260208401935050602081019050611b1a565b5050509392505050565b600082601f830112611b6057611b5f6116dc565b5b8135611b70848260208601611ae2565b91505092915050565b600080fd5b600067ffffffffffffffff821115611b9957611b986116f2565b5b611ba2826116e1565b9050602081019050919050565b82818337600083830152505050565b6000611bd1611bcc84611b7e565b611752565b905082815260208101848484011115611bed57611bec611b79565b5b611bf8848285611baf565b509392505050565b600082601f830112611c1557611c146116dc565b5b8135611c25848260208601611bbe565b91505092915050565b60008060008060808587031215611c4857611c476116a6565b5b600085013567ffffffffffffffff811115611c6657611c656116ab565b5b611c7287828801611a88565b945050602085013567ffffffffffffffff811115611c9357611c926116ab565b5b611c9f87828801611b4b565b935050604085013567ffffffffffffffff811115611cc057611cbf6116ab565b5b611ccc87828801611b4b565b925050606085013567ffffffffffffffff811115611ced57611cec6116ab565b5b611cf987828801611c00565b91505092959194509250565b600060208284031215611d1b57611d1a6116a6565b5b6000611d29848285016117e7565b91505092915050565b600082825260208201905092915050565b7f496e76616c696420696e697469616c20616d6f756e7400000000000000000000600082015250565b6000611d79601683611d32565b9150611d8482611d43565b602082019050919050565b60006020820190508181036000830152611da881611d6c565b9050919050565b7f546f6b656e73206c656e677468206973206c657373207468616e203200000000600082015250565b6000611de5601c83611d32565b9150611df082611daf565b602082019050919050565b60006020820190508181036000830152611e1481611dd8565b9050919050565b7f526f7574657273206c656e677468206973206c657373207468616e2032000000600082015250565b6000611e51601d83611d32565b9150611e5c82611e1b565b602082019050919050565b60006020820190508181036000830152611e8081611e44565b9050919050565b7f526f757465727320616e6420746f6b656e73206c656e67746820617265206e6f60008201527f7420657175616c00000000000000000000000000000000000000000000000000602082015250565b6000611ee3602783611d32565b9150611eee82611e87565b604082019050919050565b60006020820190508181036000830152611f1281611ed6565b9050919050565b7f4e487b7100000000000000000000000000000000000000000000000000000000600052603260045260246000fd5b600081519050919050565b600082825260208201905092915050565b6000819050602082019050919050565b611f7d816117be565b82525050565b6000611f8f8383611f74565b60208301905092915050565b6000602082019050919050565b6000611fb382611f48565b611fbd8185611f53565b9350611fc883611f64565b8060005b83811015611ff9578151611fe08882611f83565b9750611feb83611f9b565b925050600181019050611fcc565b5085935050505092915050565b600060608201905061201b6000830186611672565b818103602083015261202d8185611fa8565b905081810360408301526120418184611fa8565b9050949350505050565b6000819050919050565b600061207061206b6120668461179e565b61204b565b61179e565b9050919050565b600061208282612055565b9050919050565b600061209482612077565b9050919050565b6120a481612089565b82525050565b600081519050919050565b6000819050602082019050919050565b60006120d082612077565b9050919050565b6120e0816120c5565b82525050565b60006120f283836120d7565b60208301905092915050565b6000602082019050919050565b6000612116826120aa565b6121208185611f53565b935061212b836120b5565b8060005b8381101561215c57815161214388826120e6565b975061214e836120fe565b92505060018101905061212f565b5085935050505092915050565b600081519050919050565b600082825260208201905092915050565b6000819050602082019050919050565b61219e81611668565b82525050565b60006121b08383612195565b60208301905092915050565b6000602082019050919050565b60006121d482612169565b6121de8185612174565b93506121e983612185565b8060005b8381101561221a57815161220188826121a4565b975061220c836121bc565b9250506001810190506121ed565b5085935050505092915050565b600081519050919050565b600082825260208201905092915050565b60005b83811015612261578082015181840152602081019050612246565b60008484015250505050565b600061227882612227565b6122828185612232565b9350612292818560208601612243565b61229b816116e1565b840191505092915050565b60006080820190506122bb600083018761209b565b81810360208301526122cd818661210b565b905081810360408301526122e181856121c9565b905081810360608301526122f5818461226d565b905095945050505050565b6000606082019050818103600083015261231a8186611fa8565b9050818103602083015261232e81856121c9565b90508181036040830152612342818461226d565b9050949350505050565b6000604082019050612361600083018561194b565b61236e6020830184611672565b9392505050565b60008115159050919050565b61238a81612375565b811461239557600080fd5b50565b6000815190506123a781612381565b92915050565b6000602082840312156123c3576123c26116a6565b5b60006123d184828501612398565b91505092915050565b7f43616c6c6572206973206e6f7420746865207661756c74000000000000000000600082015250565b6000612410601783611d32565b915061241b826123da565b602082019050919050565b6000602082019050818103600083015261243f81612403565b9050919050565b600081519050612455816116b0565b92915050565b60008151905061246a816117d0565b92915050565b600061248361247e8461176d565b611752565b905080838252602082019050602084028301858111156124a6576124a5611799565b5b835b818110156124cf57806124bb888261245b565b8452602084019350506020810190506124a8565b5050509392505050565b600082601f8301126124ee576124ed6116dc565b5b81516124fe848260208601612470565b91505092915050565b6000806000606084860312156125205761251f6116a6565b5b600061252e86828701612446565b935050602084015167ffffffffffffffff81111561254f5761254e6116ab565b5b61255b868287016124d9565b925050604084015167ffffffffffffffff81111561257c5761257b6116ab565b5b612588868287016124d9565b9150509250925092565b7f4e487b7100000000000000000000000000000000000000000000000000000000600052601160045260246000fd5b60006125cc82611668565b91506125d783611668565b92508282019050808211156125ef576125ee612592565b5b92915050565b7f417262697472616765206e6f742070726f66697461626c650000000000000000600082015250565b600061262b601883611d32565b9150612636826125f5565b602082019050919050565b6000602082019050818103600083015261265a8161261e565b9050919050565b600061266c82611668565b915061267783611668565b925082820390508181111561268f5761268e612592565b5b92915050565b60006126a082611668565b91507fffffffffffffffffffffffffffffffffffffffffffffffffffffffffffffffff82036126d2576126d1612592565b5b600182019050919050565b600081519050919050565b60006126f3826126dd565b6126fd8185611d32565b935061270d818560208601612243565b612716816116e1565b840191505092915050565b6000604082019050818103600083015261273b81856126e8565b905061274a6020830184611672565b9392505050565b7f496e76616c696420726f75746572206164647265737300000000000000000000600082015250565b6000612787601683611d32565b915061279282612751565b602082019050919050565b600060208201905081810360008301526127b68161277a565b9050919050565b60006040820190506127d26000830185611672565b81810360208301526127e48184611fa8565b90509392505050565b60006128006127fb84611ab6565b611752565b9050808382526020820190506020840283018581111561282357612822611799565b5b835b8181101561284c57806128388882612446565b845260208401935050602081019050612825565b5050509392505050565b600082601f83011261286b5761286a6116dc565b5b815161287b8482602086016127ed565b91505092915050565b60006020828403121561289a576128996116a6565b5b600082015167ffffffffffffffff8111156128b8576128b76116ab565b5b6128c484828501612856565b91505092915050565b60006128d882611668565b91506128e383611668565b92508282026128f181611668565b9150828204841483151761290857612907612592565b5b5092915050565b7f4e487b7100000000000000000000000000000000000000000000000000000000600052601260045260246000fd5b600061294982611668565b915061295483611668565b9250826129645761296361290f565b5b828204905092915050565b600060a0820190506129846000830188611672565b6129916020830187611672565b81810360408301526129a38186611fa8565b90506129b2606083018561194b565b6129bf6080830184611672565b9695505050505050565b60006040820190506129de600083018561194b565b6129eb602083018461194b565b9392505050565b600060208284031215612a0857612a076116a6565b5b6000612a1684828501612446565b91505092915050565b7f4e487b7100000000000000000000000000000000000000000000000000000000600052605160045260246000fdfea264697066735822122034b7ac91915fd2b7e956d84aea9311b653f5bdaaceb6b14ecd13257fae0c577264736f6c63430008180033",
  "linkReferences": {},
  "deployedLinkReferences": {}
}